{
  "_format": "hh-sol-artifact-1",
  "contractName": "MyEpicNFT",
  "sourceName": "contracts/MyEpicNFT.sol",
  "abi": [
    {
      "inputs": [],
      "stateMutability": "nonpayable",
      "type": "constructor"
    },
    {
      "anonymous": false,
      "inputs": [
        {
          "indexed": true,
          "internalType": "address",
          "name": "owner",
          "type": "address"
        },
        {
          "indexed": true,
          "internalType": "address",
          "name": "approved",
          "type": "address"
        },
        {
          "indexed": true,
          "internalType": "uint256",
          "name": "tokenId",
          "type": "uint256"
        }
      ],
      "name": "Approval",
      "type": "event"
    },
    {
      "anonymous": false,
      "inputs": [
        {
          "indexed": true,
          "internalType": "address",
          "name": "owner",
          "type": "address"
        },
        {
          "indexed": true,
          "internalType": "address",
          "name": "operator",
          "type": "address"
        },
        {
          "indexed": false,
          "internalType": "bool",
          "name": "approved",
          "type": "bool"
        }
      ],
      "name": "ApprovalForAll",
      "type": "event"
    },
    {
      "anonymous": false,
      "inputs": [
        {
          "indexed": false,
          "internalType": "address",
          "name": "sender",
          "type": "address"
        },
        {
          "indexed": false,
          "internalType": "uint256",
          "name": "tokenId",
          "type": "uint256"
        }
      ],
      "name": "NewEpicNFTMinted",
      "type": "event"
    },
    {
      "anonymous": false,
      "inputs": [
        {
          "indexed": true,
          "internalType": "address",
          "name": "from",
          "type": "address"
        },
        {
          "indexed": true,
          "internalType": "address",
          "name": "to",
          "type": "address"
        },
        {
          "indexed": true,
          "internalType": "uint256",
          "name": "tokenId",
          "type": "uint256"
        }
      ],
      "name": "Transfer",
      "type": "event"
    },
    {
      "inputs": [
        {
          "internalType": "address",
          "name": "to",
          "type": "address"
        },
        {
          "internalType": "uint256",
          "name": "tokenId",
          "type": "uint256"
        }
      ],
      "name": "approve",
      "outputs": [],
      "stateMutability": "nonpayable",
      "type": "function"
    },
    {
      "inputs": [
        {
          "internalType": "address",
          "name": "owner",
          "type": "address"
        }
      ],
      "name": "balanceOf",
      "outputs": [
        {
          "internalType": "uint256",
          "name": "",
          "type": "uint256"
        }
      ],
      "stateMutability": "view",
      "type": "function"
    },
    {
      "inputs": [
        {
          "internalType": "uint256",
          "name": "tokenId",
          "type": "uint256"
        }
      ],
      "name": "getApproved",
      "outputs": [
        {
          "internalType": "address",
          "name": "",
          "type": "address"
        }
      ],
      "stateMutability": "view",
      "type": "function"
    },
    {
      "inputs": [
        {
          "internalType": "address",
          "name": "owner",
          "type": "address"
        },
        {
          "internalType": "address",
          "name": "operator",
          "type": "address"
        }
      ],
      "name": "isApprovedForAll",
      "outputs": [
        {
          "internalType": "bool",
          "name": "",
          "type": "bool"
        }
      ],
      "stateMutability": "view",
      "type": "function"
    },
    {
      "inputs": [],
      "name": "makeAnEpicNFT",
      "outputs": [],
      "stateMutability": "nonpayable",
      "type": "function"
    },
    {
      "inputs": [],
      "name": "name",
      "outputs": [
        {
          "internalType": "string",
          "name": "",
          "type": "string"
        }
      ],
      "stateMutability": "view",
      "type": "function"
    },
    {
      "inputs": [
        {
          "internalType": "uint256",
          "name": "tokenId",
          "type": "uint256"
        }
      ],
      "name": "ownerOf",
      "outputs": [
        {
          "internalType": "address",
          "name": "",
          "type": "address"
        }
      ],
      "stateMutability": "view",
      "type": "function"
    },
    {
      "inputs": [
        {
          "internalType": "uint256",
          "name": "tokenId",
          "type": "uint256"
        }
      ],
      "name": "pickRandomColor",
      "outputs": [
        {
          "internalType": "string",
          "name": "",
          "type": "string"
        }
      ],
      "stateMutability": "view",
      "type": "function"
    },
    {
      "inputs": [
        {
          "internalType": "uint256",
          "name": "tokenId",
          "type": "uint256"
        }
      ],
      "name": "pickRandomFirstWord",
      "outputs": [
        {
          "internalType": "string",
          "name": "",
          "type": "string"
        }
      ],
      "stateMutability": "view",
      "type": "function"
    },
    {
      "inputs": [
        {
          "internalType": "uint256",
          "name": "tokenId",
          "type": "uint256"
        }
      ],
      "name": "pickRandomSecondWord",
      "outputs": [
        {
          "internalType": "string",
          "name": "",
          "type": "string"
        }
      ],
      "stateMutability": "view",
      "type": "function"
    },
    {
      "inputs": [
        {
          "internalType": "uint256",
          "name": "tokenId",
          "type": "uint256"
        }
      ],
      "name": "pickRandomThirdWord",
      "outputs": [
        {
          "internalType": "string",
          "name": "",
          "type": "string"
        }
      ],
      "stateMutability": "view",
      "type": "function"
    },
    {
      "inputs": [
        {
          "internalType": "address",
          "name": "from",
          "type": "address"
        },
        {
          "internalType": "address",
          "name": "to",
          "type": "address"
        },
        {
          "internalType": "uint256",
          "name": "tokenId",
          "type": "uint256"
        }
      ],
      "name": "safeTransferFrom",
      "outputs": [],
      "stateMutability": "nonpayable",
      "type": "function"
    },
    {
      "inputs": [
        {
          "internalType": "address",
          "name": "from",
          "type": "address"
        },
        {
          "internalType": "address",
          "name": "to",
          "type": "address"
        },
        {
          "internalType": "uint256",
          "name": "tokenId",
          "type": "uint256"
        },
        {
          "internalType": "bytes",
          "name": "_data",
          "type": "bytes"
        }
      ],
      "name": "safeTransferFrom",
      "outputs": [],
      "stateMutability": "nonpayable",
      "type": "function"
    },
    {
      "inputs": [
        {
          "internalType": "address",
          "name": "operator",
          "type": "address"
        },
        {
          "internalType": "bool",
          "name": "approved",
          "type": "bool"
        }
      ],
      "name": "setApprovalForAll",
      "outputs": [],
      "stateMutability": "nonpayable",
      "type": "function"
    },
    {
      "inputs": [
        {
          "internalType": "bytes4",
          "name": "interfaceId",
          "type": "bytes4"
        }
      ],
      "name": "supportsInterface",
      "outputs": [
        {
          "internalType": "bool",
          "name": "",
          "type": "bool"
        }
      ],
      "stateMutability": "view",
      "type": "function"
    },
    {
      "inputs": [],
      "name": "symbol",
      "outputs": [
        {
          "internalType": "string",
          "name": "",
          "type": "string"
        }
      ],
      "stateMutability": "view",
      "type": "function"
    },
    {
      "inputs": [
        {
          "internalType": "uint256",
          "name": "tokenId",
          "type": "uint256"
        }
      ],
      "name": "tokenURI",
      "outputs": [
        {
          "internalType": "string",
          "name": "",
          "type": "string"
        }
      ],
      "stateMutability": "view",
      "type": "function"
    },
    {
      "inputs": [],
      "name": "totalMints",
      "outputs": [
        {
          "internalType": "uint256",
          "name": "",
          "type": "uint256"
        }
      ],
      "stateMutability": "view",
      "type": "function"
    },
    {
      "inputs": [
        {
          "internalType": "address",
          "name": "from",
          "type": "address"
        },
        {
          "internalType": "address",
          "name": "to",
          "type": "address"
        },
        {
          "internalType": "uint256",
          "name": "tokenId",
          "type": "uint256"
        }
      ],
      "name": "transferFrom",
      "outputs": [],
      "stateMutability": "nonpayable",
      "type": "function"
    }
  ],
  "bytecode": "0x608060405260405180610100016040528060d381526020016200442160d3913960089080519060200190620000369291906200071a565b50604051806080016040528060568152602001620044f46056913960099080519060200190620000689291906200071a565b506040518060c001604052806040518060400160405280600681526020017f416374697665000000000000000000000000000000000000000000000000000081525081526020016040518060400160405280600781526020017f486f706566756c0000000000000000000000000000000000000000000000000081525081526020016040518060400160405280600881526020017f5265636b6c65737300000000000000000000000000000000000000000000000081525081526020016040518060400160405280600581526020017f4e6f69737900000000000000000000000000000000000000000000000000000081525081526020016040518060400160405280600481526020017f536c6f770000000000000000000000000000000000000000000000000000000081525081526020016040518060400160405280600781526020017f536861646f777900000000000000000000000000000000000000000000000000815250815250600a906006620001e6929190620007ab565b506040518060c001604052806040518060400160405280600881526020017f416d65726963616e00000000000000000000000000000000000000000000000081525081526020016040518060400160405280600481526020017f4575726f0000000000000000000000000000000000000000000000000000000081525081526020016040518060400160405280600581526020017f314869766500000000000000000000000000000000000000000000000000000081525081526020016040518060400160405280600581526020017f537570657200000000000000000000000000000000000000000000000000000081525081526020016040518060400160405280600581526020017f4e6572647900000000000000000000000000000000000000000000000000000081525081526020016040518060400160405280600581526020017f4765656b79000000000000000000000000000000000000000000000000000000815250815250600b90600662000364929190620007ab565b506040518060c001604052806040518060400160405280600381526020017f426565000000000000000000000000000000000000000000000000000000000081525081526020016040518060400160405280600481526020017f576173700000000000000000000000000000000000000000000000000000000081525081526020016040518060400160405280600881526020017f486f6e657962656500000000000000000000000000000000000000000000000081525081526020016040518060400160405280600681526020017f57696e6e6572000000000000000000000000000000000000000000000000000081525081526020016040518060400160405280600581526020017f436f64657200000000000000000000000000000000000000000000000000000081525081526020016040518060400160405280600581526020017f456c697465000000000000000000000000000000000000000000000000000000815250815250600c906006620004e2929190620007ab565b506040518060c001604052806040518060400160405280600381526020017f726564000000000000000000000000000000000000000000000000000000000081525081526020016040518060400160405280600781526020017f233038433241380000000000000000000000000000000000000000000000000081525081526020016040518060400160405280600581526020017f626c61636b00000000000000000000000000000000000000000000000000000081525081526020016040518060400160405280600681526020017f79656c6c6f77000000000000000000000000000000000000000000000000000081525081526020016040518060400160405280600481526020017f626c75650000000000000000000000000000000000000000000000000000000081525081526020016040518060400160405280600581526020017f677265656e000000000000000000000000000000000000000000000000000000815250815250600d90600662000660929190620007ab565b506032600e553480156200067357600080fd5b506040518060400160405280600681526020017f4265654e465400000000000000000000000000000000000000000000000000008152506040518060400160405280600481526020017f424e4654000000000000000000000000000000000000000000000000000000008152508160009080519060200190620006f89291906200071a565b508060019080519060200190620007119291906200071a565b50505062000904565b82805462000728906200089f565b90600052602060002090601f0160209004810192826200074c576000855562000798565b82601f106200076757805160ff191683800117855562000798565b8280016001018555821562000798579182015b82811115620007975782518255916020019190600101906200077a565b5b509050620007a7919062000812565b5090565b828054828255906000526020600020908101928215620007ff579160200282015b82811115620007fe578251829080519060200190620007ed9291906200071a565b5091602001919060010190620007cc565b5b5090506200080e919062000831565b5090565b5b808211156200082d57600081600090555060010162000813565b5090565b5b808211156200085557600081816200084b919062000859565b5060010162000832565b5090565b50805462000867906200089f565b6000825580601f106200087b57506200089c565b601f0160209004906000526020600020908101906200089b919062000812565b5b50565b60006002820490506001821680620008b857607f821691505b60208210811415620008cf57620008ce620008d5565b5b50919050565b7f4e487b7100000000000000000000000000000000000000000000000000000000600052602260045260246000fd5b613b0d80620009146000396000f3fe608060405234801561001057600080fd5b50600436106101215760003560e01c80636352211e116100ad578063b88d4fde11610071578063b88d4fde14610340578063c575757a1461035c578063c87b56dd1461038c578063de9d132f146103bc578063e985e9c5146103c657610121565b80636352211e1461027657806370a08231146102a657806395d89b41146102d6578063a22cb465146102f4578063b187301f1461031057610121565b80631f21bfbf116100f45780631f21bfbf146101c057806323b872dd146101de5780632de38d68146101fa57806342842e0e1461022a578063514dc8c61461024657610121565b806301ffc9a71461012657806306fdde0314610156578063081812fc14610174578063095ea7b3146101a4575b600080fd5b610140600480360381019061013b91906126ab565b6103f6565b60405161014d9190613363565b60405180910390f35b61015e6104d8565b60405161016b919061337e565b60405180910390f35b61018e600480360381019061018991906126fd565b61056a565b60405161019b91906132d3565b60405180910390f35b6101be60048036038101906101b9919061266f565b6105ef565b005b6101c8610707565b6040516101d591906135fe565b60405180910390f35b6101f860048036038101906101f39190612569565b61071d565b005b610214600480360381019061020f91906126fd565b61077d565b604051610221919061337e565b60405180910390f35b610244600480360381019061023f9190612569565b61089b565b005b610260600480360381019061025b91906126fd565b6108bb565b60405161026d919061337e565b60405180910390f35b610290600480360381019061028b91906126fd565b6109d9565b60405161029d91906132d3565b60405180910390f35b6102c060048036038101906102bb9190612504565b610a8b565b6040516102cd91906135fe565b60405180910390f35b6102de610b43565b6040516102eb919061337e565b60405180910390f35b61030e60048036038101906103099190612633565b610bd5565b005b61032a600480360381019061032591906126fd565b610d56565b604051610337919061337e565b60405180910390f35b61035a600480360381019061035591906125b8565b610e74565b005b610376600480360381019061037191906126fd565b610ed6565b604051610383919061337e565b60405180910390f35b6103a660048036038101906103a191906126fd565b610ff4565b6040516103b3919061337e565b60405180910390f35b6103c4611146565b005b6103e060048036038101906103db919061252d565b611384565b6040516103ed9190613363565b60405180910390f35b60007f80ac58cd000000000000000000000000000000000000000000000000000000007bffffffffffffffffffffffffffffffffffffffffffffffffffffffff1916827bffffffffffffffffffffffffffffffffffffffffffffffffffffffff191614806104c157507f5b5e139f000000000000000000000000000000000000000000000000000000007bffffffffffffffffffffffffffffffffffffffffffffffffffffffff1916827bffffffffffffffffffffffffffffffffffffffffffffffffffffffff1916145b806104d157506104d082611418565b5b9050919050565b6060600080546104e79061389d565b80601f01602080910402602001604051908101604052809291908181526020018280546105139061389d565b80156105605780601f1061053557610100808354040283529160200191610560565b820191906000526020600020905b81548152906001019060200180831161054357829003601f168201915b5050505050905090565b600061057582611482565b6105b4576040517f08c379a00000000000000000000000000000000000000000000000000000000081526004016105ab9061353e565b60405180910390fd5b6004600083815260200190815260200160002060009054906101000a900473ffffffffffffffffffffffffffffffffffffffff169050919050565b60006105fa826109d9565b90508073ffffffffffffffffffffffffffffffffffffffff168373ffffffffffffffffffffffffffffffffffffffff16141561066b576040517f08c379a00000000000000000000000000000000000000000000000000000000081526004016106629061359e565b60405180910390fd5b8073ffffffffffffffffffffffffffffffffffffffff1661068a6114ee565b73ffffffffffffffffffffffffffffffffffffffff1614806106b957506106b8816106b36114ee565b611384565b5b6106f8576040517f08c379a00000000000000000000000000000000000000000000000000000000081526004016106ef9061347e565b60405180910390fd5b61070283836114f6565b505050565b60008061071460076115af565b90508091505090565b61072e6107286114ee565b826115bd565b61076d576040517f08c379a0000000000000000000000000000000000000000000000000000000008152600401610764906135be565b60405180910390fd5b61077883838361169b565b505050565b606060006107b161078d846118f7565b60405160200161079d919061326d565b604051602081830303815290604052611aa4565b9050600a80549050816107c49190613918565b9050600a8181548110610800577f4e487b7100000000000000000000000000000000000000000000000000000000600052603260045260246000fd5b9060005260206000200180546108159061389d565b80601f01602080910402602001604051908101604052809291908181526020018280546108419061389d565b801561088e5780601f106108635761010080835404028352916020019161088e565b820191906000526020600020905b81548152906001019060200180831161087157829003601f168201915b5050505050915050919050565b6108b683838360405180602001604052806000815250610e74565b505050565b606060006108ef6108cb846118f7565b6040516020016108db91906132b1565b604051602081830303815290604052611aa4565b9050600d80549050816109029190613918565b9050600d818154811061093e577f4e487b7100000000000000000000000000000000000000000000000000000000600052603260045260246000fd5b9060005260206000200180546109539061389d565b80601f016020809104026020016040519081016040528092919081815260200182805461097f9061389d565b80156109cc5780601f106109a1576101008083540402835291602001916109cc565b820191906000526020600020905b8154815290600101906020018083116109af57829003601f168201915b5050505050915050919050565b6000806002600084815260200190815260200160002060009054906101000a900473ffffffffffffffffffffffffffffffffffffffff169050600073ffffffffffffffffffffffffffffffffffffffff168173ffffffffffffffffffffffffffffffffffffffff161415610a82576040517f08c379a0000000000000000000000000000000000000000000000000000000008152600401610a79906134be565b60405180910390fd5b80915050919050565b60008073ffffffffffffffffffffffffffffffffffffffff168273ffffffffffffffffffffffffffffffffffffffff161415610afc576040517f08c379a0000000000000000000000000000000000000000000000000000000008152600401610af39061349e565b60405180910390fd5b600360008373ffffffffffffffffffffffffffffffffffffffff1673ffffffffffffffffffffffffffffffffffffffff168152602001908152602001600020549050919050565b606060018054610b529061389d565b80601f0160208091040260200160405190810160405280929190818152602001828054610b7e9061389d565b8015610bcb5780601f10610ba057610100808354040283529160200191610bcb565b820191906000526020600020905b815481529060010190602001808311610bae57829003601f168201915b5050505050905090565b610bdd6114ee565b73ffffffffffffffffffffffffffffffffffffffff168273ffffffffffffffffffffffffffffffffffffffff161415610c4b576040517f08c379a0000000000000000000000000000000000000000000000000000000008152600401610c429061343e565b60405180910390fd5b8060056000610c586114ee565b73ffffffffffffffffffffffffffffffffffffffff1673ffffffffffffffffffffffffffffffffffffffff16815260200190815260200160002060008473ffffffffffffffffffffffffffffffffffffffff1673ffffffffffffffffffffffffffffffffffffffff16815260200190815260200160002060006101000a81548160ff0219169083151502179055508173ffffffffffffffffffffffffffffffffffffffff16610d056114ee565b73ffffffffffffffffffffffffffffffffffffffff167f17307eab39ab6107e8899845ad3d59bd9653f200f220920489ca2b5937696c3183604051610d4a9190613363565b60405180910390a35050565b60606000610d8a610d66846118f7565b604051602001610d769190613206565b604051602081830303815290604052611aa4565b9050600b8054905081610d9d9190613918565b9050600b8181548110610dd9577f4e487b7100000000000000000000000000000000000000000000000000000000600052603260045260246000fd5b906000526020600020018054610dee9061389d565b80601f0160208091040260200160405190810160405280929190818152602001828054610e1a9061389d565b8015610e675780601f10610e3c57610100808354040283529160200191610e67565b820191906000526020600020905b815481529060010190602001808311610e4a57829003601f168201915b5050505050915050919050565b610e85610e7f6114ee565b836115bd565b610ec4576040517f08c379a0000000000000000000000000000000000000000000000000000000008152600401610ebb906135be565b60405180910390fd5b610ed084848484611ad7565b50505050565b60606000610f0a610ee6846118f7565b604051602001610ef691906131e4565b604051602081830303815290604052611aa4565b9050600c8054905081610f1d9190613918565b9050600c8181548110610f59577f4e487b7100000000000000000000000000000000000000000000000000000000600052603260045260246000fd5b906000526020600020018054610f6e9061389d565b80601f0160208091040260200160405190810160405280929190818152602001828054610f9a9061389d565b8015610fe75780601f10610fbc57610100808354040283529160200191610fe7565b820191906000526020600020905b815481529060010190602001808311610fca57829003601f168201915b5050505050915050919050565b6060610fff82611482565b61103e576040517f08c379a00000000000000000000000000000000000000000000000000000000081526004016110359061351e565b60405180910390fd5b600060066000848152602001908152602001600020805461105e9061389d565b80601f016020809104026020016040519081016040528092919081815260200182805461108a9061389d565b80156110d75780601f106110ac576101008083540402835291602001916110d7565b820191906000526020600020905b8154815290600101906020018083116110ba57829003601f168201915b5050505050905060006110e8611b33565b90506000815114156110fe578192505050611141565b60008251111561113357808260405160200161111b929190613146565b60405160208183030381529060405292505050611141565b61113c84611b4a565b925050505b919050565b600061115260076115af565b9050600e548110611198576040517f08c379a000000000000000000000000000000000000000000000000000000000815260040161118f906135de565b60405180910390fd5b60006111a38261077d565b905060006111b083610d56565b905060006111bd84610ed6565b905060008383836040516020016111d69392919061316a565b604051602081830303815290604052905060006111f2866108bb565b9050600060088260098560405160200161120f949392919061319b565b604051602081830303815290604052905060006112548461122f84611bf1565b604051602001611240929190613228565b604051602081830303815290604052611bf1565b9050600081604051602001611269919061328f565b60405160208183030381529060405290506112b86040518060400160405280601581526020017f0a2d2d2d2d2d2d2d2d2d2d2d2d2d2d2d2d2d2d2d2d0000000000000000000000815250611daf565b6112c181611daf565b6112ff6040518060400160405280601581526020017f2d2d2d2d2d2d2d2d2d2d2d2d2d2d2d2d2d2d2d2d0a0000000000000000000000815250611daf565b611309338a611e48565b6113138982611e66565b611336604051806060016040528060258152602001613a73602591398a33611eda565b6113406007611f79565b7febb98688741ffa4c7589bf325de30cf7becb63de567842e1ccdb6cb949fdc82c338a60405161137192919061333a565b60405180910390a1505050505050505050565b6000600560008473ffffffffffffffffffffffffffffffffffffffff1673ffffffffffffffffffffffffffffffffffffffff16815260200190815260200160002060008373ffffffffffffffffffffffffffffffffffffffff1673ffffffffffffffffffffffffffffffffffffffff16815260200190815260200160002060009054906101000a900460ff16905092915050565b60007f01ffc9a7000000000000000000000000000000000000000000000000000000007bffffffffffffffffffffffffffffffffffffffffffffffffffffffff1916827bffffffffffffffffffffffffffffffffffffffffffffffffffffffff1916149050919050565b60008073ffffffffffffffffffffffffffffffffffffffff166002600084815260200190815260200160002060009054906101000a900473ffffffffffffffffffffffffffffffffffffffff1673ffffffffffffffffffffffffffffffffffffffff1614159050919050565b600033905090565b816004600083815260200190815260200160002060006101000a81548173ffffffffffffffffffffffffffffffffffffffff021916908373ffffffffffffffffffffffffffffffffffffffff160217905550808273ffffffffffffffffffffffffffffffffffffffff16611569836109d9565b73ffffffffffffffffffffffffffffffffffffffff167f8c5be1e5ebec7d5bd14f71427d1e84f3dd0314c0f7b2291e5b200ac8c7c3b92560405160405180910390a45050565b600081600001549050919050565b60006115c882611482565b611607576040517f08c379a00000000000000000000000000000000000000000000000000000000081526004016115fe9061345e565b60405180910390fd5b6000611612836109d9565b90508073ffffffffffffffffffffffffffffffffffffffff168473ffffffffffffffffffffffffffffffffffffffff16148061168157508373ffffffffffffffffffffffffffffffffffffffff166116698461056a565b73ffffffffffffffffffffffffffffffffffffffff16145b8061169257506116918185611384565b5b91505092915050565b8273ffffffffffffffffffffffffffffffffffffffff166116bb826109d9565b73ffffffffffffffffffffffffffffffffffffffff1614611711576040517f08c379a00000000000000000000000000000000000000000000000000000000081526004016117089061355e565b60405180910390fd5b600073ffffffffffffffffffffffffffffffffffffffff168273ffffffffffffffffffffffffffffffffffffffff161415611781576040517f08c379a00000000000000000000000000000000000000000000000000000000081526004016117789061341e565b60405180910390fd5b61178c838383611f8f565b6117976000826114f6565b6001600360008573ffffffffffffffffffffffffffffffffffffffff1673ffffffffffffffffffffffffffffffffffffffff16815260200190815260200160002060008282546117e791906137b3565b925050819055506001600360008473ffffffffffffffffffffffffffffffffffffffff1673ffffffffffffffffffffffffffffffffffffffff168152602001908152602001600020600082825461183e91906136d2565b92505081905550816002600083815260200190815260200160002060006101000a81548173ffffffffffffffffffffffffffffffffffffffff021916908373ffffffffffffffffffffffffffffffffffffffff160217905550808273ffffffffffffffffffffffffffffffffffffffff168473ffffffffffffffffffffffffffffffffffffffff167fddf252ad1be2c89b69c2b068fc378daa952ba7f163c4a11628f55a4df523b3ef60405160405180910390a4505050565b6060600082141561193f576040518060400160405280600181526020017f30000000000000000000000000000000000000000000000000000000000000008152509050611a9f565b600082905060005b6000821461197157808061195a906138cf565b915050600a8261196a9190613728565b9150611947565b60008167ffffffffffffffff8111156119b3577f4e487b7100000000000000000000000000000000000000000000000000000000600052604160045260246000fd5b6040519080825280601f01601f1916602001820160405280156119e55781602001600182028036833780820191505090505b5090505b60008514611a98576001826119fe91906137b3565b9150600a85611a0d9190613918565b6030611a1991906136d2565b60f81b818381518110611a55577f4e487b7100000000000000000000000000000000000000000000000000000000600052603260045260246000fd5b60200101907effffffffffffffffffffffffffffffffffffffffffffffffffffffffffffff1916908160001a905350600a85611a919190613728565b94506119e9565b8093505050505b919050565b600081604051602001611ab7919061312f565b6040516020818303038152906040528051906020012060001c9050919050565b611ae284848461169b565b611aee84848484611f94565b611b2d576040517f08c379a0000000000000000000000000000000000000000000000000000000008152600401611b24906133de565b60405180910390fd5b50505050565b606060405180602001604052806000815250905090565b6060611b5582611482565b611b94576040517f08c379a0000000000000000000000000000000000000000000000000000000008152600401611b8b9061357e565b60405180910390fd5b6000611b9e611b33565b90506000815111611bbe5760405180602001604052806000815250611be9565b80611bc8846118f7565b604051602001611bd9929190613146565b6040516020818303038152906040525b915050919050565b60606000825190506000811415611c1a5760405180602001604052806000815250915050611daa565b60006003600283611c2b91906136d2565b611c359190613728565b6004611c419190613759565b90506000602082611c5291906136d2565b67ffffffffffffffff811115611c91577f4e487b7100000000000000000000000000000000000000000000000000000000600052604160045260246000fd5b6040519080825280601f01601f191660200182016040528015611cc35781602001600182028036833780820191505090505b5090506000604051806060016040528060408152602001613a98604091399050600181016020830160005b86811015611d675760038101905062ffffff818a015116603f8160121c168401518060081b905060ff603f83600c1c1686015116810190508060081b905060ff603f8360061c1686015116810190508060081b905060ff603f831686015116810190508060e01b90508084526004840193505050611cee565b506003860660018114611d815760028114611d9157611d9c565b613d3d60f01b6002830352611d9c565b603d60f81b60018303525b508484525050819450505050505b919050565b611e4581604051602401611dc3919061337e565b6040516020818303038152906040527f41304fac000000000000000000000000000000000000000000000000000000007bffffffffffffffffffffffffffffffffffffffffffffffffffffffff19166020820180517bffffffffffffffffffffffffffffffffffffffffffffffffffffffff838183161783525050505061212b565b50565b611e62828260405180602001604052806000815250612154565b5050565b611e6f82611482565b611eae576040517f08c379a0000000000000000000000000000000000000000000000000000000008152600401611ea5906134de565b60405180910390fd5b80600660008481526020019081526020016000209080519060200190611ed5929190612390565b505050565b611f74838383604051602401611ef2939291906133a0565b6040516020818303038152906040527fe3849f79000000000000000000000000000000000000000000000000000000007bffffffffffffffffffffffffffffffffffffffffffffffffffffffff19166020820180517bffffffffffffffffffffffffffffffffffffffffffffffffffffffff838183161783525050505061212b565b505050565b6001816000016000828254019250508190555050565b505050565b6000611fb58473ffffffffffffffffffffffffffffffffffffffff166121af565b1561211e578373ffffffffffffffffffffffffffffffffffffffff1663150b7a02611fde6114ee565b8786866040518563ffffffff1660e01b815260040161200094939291906132ee565b602060405180830381600087803b15801561201a57600080fd5b505af192505050801561204b57506040513d601f19601f8201168201806040525081019061204891906126d4565b60015b6120ce573d806000811461207b576040519150601f19603f3d011682016040523d82523d6000602084013e612080565b606091505b506000815114156120c6576040517f08c379a00000000000000000000000000000000000000000000000000000000081526004016120bd906133de565b60405180910390fd5b805181602001fd5b63150b7a0260e01b7bffffffffffffffffffffffffffffffffffffffffffffffffffffffff1916817bffffffffffffffffffffffffffffffffffffffffffffffffffffffff191614915050612123565b600190505b949350505050565b60008151905060006a636f6e736f6c652e6c6f679050602083016000808483855afa5050505050565b61215e83836121c2565b61216b6000848484611f94565b6121aa576040517f08c379a00000000000000000000000000000000000000000000000000000000081526004016121a1906133de565b60405180910390fd5b505050565b600080823b905060008111915050919050565b600073ffffffffffffffffffffffffffffffffffffffff168273ffffffffffffffffffffffffffffffffffffffff161415612232576040517f08c379a0000000000000000000000000000000000000000000000000000000008152600401612229906134fe565b60405180910390fd5b61223b81611482565b1561227b576040517f08c379a0000000000000000000000000000000000000000000000000000000008152600401612272906133fe565b60405180910390fd5b61228760008383611f8f565b6001600360008473ffffffffffffffffffffffffffffffffffffffff1673ffffffffffffffffffffffffffffffffffffffff16815260200190815260200160002060008282546122d791906136d2565b92505081905550816002600083815260200190815260200160002060006101000a81548173ffffffffffffffffffffffffffffffffffffffff021916908373ffffffffffffffffffffffffffffffffffffffff160217905550808273ffffffffffffffffffffffffffffffffffffffff16600073ffffffffffffffffffffffffffffffffffffffff167fddf252ad1be2c89b69c2b068fc378daa952ba7f163c4a11628f55a4df523b3ef60405160405180910390a45050565b82805461239c9061389d565b90600052602060002090601f0160209004810192826123be5760008555612405565b82601f106123d757805160ff1916838001178555612405565b82800160010185558215612405579182015b828111156124045782518255916020019190600101906123e9565b5b5090506124129190612416565b5090565b5b8082111561242f576000816000905550600101612417565b5090565b60006124466124418461364a565b613619565b90508281526020810184848401111561245e57600080fd5b61246984828561385b565b509392505050565b60008135905061248081613a16565b92915050565b60008135905061249581613a2d565b92915050565b6000813590506124aa81613a44565b92915050565b6000815190506124bf81613a44565b92915050565b600082601f8301126124d657600080fd5b81356124e6848260208601612433565b91505092915050565b6000813590506124fe81613a5b565b92915050565b60006020828403121561251657600080fd5b600061252484828501612471565b91505092915050565b6000806040838503121561254057600080fd5b600061254e85828601612471565b925050602061255f85828601612471565b9150509250929050565b60008060006060848603121561257e57600080fd5b600061258c86828701612471565b935050602061259d86828701612471565b92505060406125ae868287016124ef565b9150509250925092565b600080600080608085870312156125ce57600080fd5b60006125dc87828801612471565b94505060206125ed87828801612471565b93505060406125fe878288016124ef565b925050606085013567ffffffffffffffff81111561261b57600080fd5b612627878288016124c5565b91505092959194509250565b6000806040838503121561264657600080fd5b600061265485828601612471565b925050602061266585828601612486565b9150509250929050565b6000806040838503121561268257600080fd5b600061269085828601612471565b92505060206126a1858286016124ef565b9150509250929050565b6000602082840312156126bd57600080fd5b60006126cb8482850161249b565b91505092915050565b6000602082840312156126e657600080fd5b60006126f4848285016124b0565b91505092915050565b60006020828403121561270f57600080fd5b600061271d848285016124ef565b91505092915050565b61272f816137e7565b82525050565b61273e816137f9565b82525050565b600061274f8261368f565b61275981856136a5565b935061276981856020860161386a565b61277281613a05565b840191505092915050565b60006127888261369a565b61279281856136b6565b93506127a281856020860161386a565b6127ab81613a05565b840191505092915050565b60006127c18261369a565b6127cb81856136c7565b93506127db81856020860161386a565b80840191505092915050565b600081546127f48161389d565b6127fe81866136c7565b94506001821660008114612819576001811461282a5761285d565b60ff1983168652818601935061285d565b6128338561367a565b60005b8381101561285557815481890152600182019150602081019050612836565b838801955050505b50505092915050565b60006128736032836136b6565b91507f4552433732313a207472616e7366657220746f206e6f6e20455243373231526560008301527f63656976657220696d706c656d656e74657200000000000000000000000000006020830152604082019050919050565b60006128d9601c836136b6565b91507f4552433732313a20746f6b656e20616c7265616479206d696e746564000000006000830152602082019050919050565b6000612919600a836136c7565b91507f54484952445f574f5244000000000000000000000000000000000000000000006000830152600a82019050919050565b60006129596024836136b6565b91507f4552433732313a207472616e7366657220746f20746865207a65726f2061646460008301527f72657373000000000000000000000000000000000000000000000000000000006020830152604082019050919050565b60006129bf6019836136b6565b91507f4552433732313a20617070726f766520746f2063616c6c6572000000000000006000830152602082019050919050565b60006129ff6060836136c7565b91507f222c20226465736372697074696f6e223a20224c696d6974656420456469746960008301527f6f6e3a2031686976652062656520636f6c6c656374696f6e2e222c2022696d6160208301527f6765223a2022646174613a696d6167652f7376672b786d6c3b6261736536342c6040830152606082019050919050565b6000612a8b600b836136c7565b91507f5345434f4e445f574f52440000000000000000000000000000000000000000006000830152600b82019050919050565b6000612acb602c836136b6565b91507f4552433732313a206f70657261746f7220717565727920666f72206e6f6e657860008301527f697374656e7420746f6b656e00000000000000000000000000000000000000006020830152604082019050919050565b6000612b31600d836136c7565b91507f3c2f746578743e3c2f7376673e000000000000000000000000000000000000006000830152600d82019050919050565b6000612b716038836136b6565b91507f4552433732313a20617070726f76652063616c6c6572206973206e6f74206f7760008301527f6e6572206e6f7220617070726f76656420666f7220616c6c00000000000000006020830152604082019050919050565b6000612bd7602a836136b6565b91507f4552433732313a2062616c616e636520717565727920666f7220746865207a6560008301527f726f2061646472657373000000000000000000000000000000000000000000006020830152604082019050919050565b6000612c3d6029836136b6565b91507f4552433732313a206f776e657220717565727920666f72206e6f6e657869737460008301527f656e7420746f6b656e00000000000000000000000000000000000000000000006020830152604082019050919050565b6000612ca3602e836136b6565b91507f45524337323155524953746f726167653a2055524920736574206f66206e6f6e60008301527f6578697374656e7420746f6b656e0000000000000000000000000000000000006020830152604082019050919050565b6000612d096002836136c7565b91507f227d0000000000000000000000000000000000000000000000000000000000006000830152600282019050919050565b6000612d496020836136b6565b91507f4552433732313a206d696e7420746f20746865207a65726f20616464726573736000830152602082019050919050565b6000612d896031836136b6565b91507f45524337323155524953746f726167653a2055524920717565727920666f722060008301527f6e6f6e6578697374656e7420746f6b656e0000000000000000000000000000006020830152604082019050919050565b6000612def602c836136b6565b91507f4552433732313a20617070726f76656420717565727920666f72206e6f6e657860008301527f697374656e7420746f6b656e00000000000000000000000000000000000000006020830152604082019050919050565b6000612e556029836136b6565b91507f4552433732313a207472616e73666572206f6620746f6b656e2074686174206960008301527f73206e6f74206f776e00000000000000000000000000000000000000000000006020830152604082019050919050565b6000612ebb602f836136b6565b91507f4552433732314d657461646174613a2055524920717565727920666f72206e6f60008301527f6e6578697374656e7420746f6b656e00000000000000000000000000000000006020830152604082019050919050565b6000612f21600a836136c7565b91507f7b226e616d65223a2022000000000000000000000000000000000000000000006000830152600a82019050919050565b6000612f616021836136b6565b91507f4552433732313a20617070726f76616c20746f2063757272656e74206f776e6560008301527f72000000000000000000000000000000000000000000000000000000000000006020830152604082019050919050565b6000612fc7600a836136c7565b91507f46495253545f574f5244000000000000000000000000000000000000000000006000830152600a82019050919050565b6000613007601d836136c7565b91507f646174613a6170706c69636174696f6e2f6a736f6e3b6261736536342c0000006000830152601d82019050919050565b60006130476031836136b6565b91507f4552433732313a207472616e736665722063616c6c6572206973206e6f74206f60008301527f776e6572206e6f7220617070726f7665640000000000000000000000000000006020830152604082019050919050565b60006130ad6005836136c7565b91507f434f4c4f520000000000000000000000000000000000000000000000000000006000830152600582019050919050565b60006130ed6015836136b6565b91507f4d696e74206361706163697479207265616368656400000000000000000000006000830152602082019050919050565b61312981613851565b82525050565b600061313b82846127b6565b915081905092915050565b600061315282856127b6565b915061315e82846127b6565b91508190509392505050565b600061317682866127b6565b915061318282856127b6565b915061318e82846127b6565b9150819050949350505050565b60006131a782876127e7565b91506131b382866127b6565b91506131bf82856127e7565b91506131cb82846127b6565b91506131d682612b24565b915081905095945050505050565b60006131ef8261290c565b91506131fb82846127b6565b915081905092915050565b600061321182612a7e565b915061321d82846127b6565b915081905092915050565b600061323382612f14565b915061323f82856127b6565b915061324a826129f2565b915061325682846127b6565b915061326182612cfc565b91508190509392505050565b600061327882612fba565b915061328482846127b6565b915081905092915050565b600061329a82612ffa565b91506132a682846127b6565b915081905092915050565b60006132bc826130a0565b91506132c882846127b6565b915081905092915050565b60006020820190506132e86000830184612726565b92915050565b60006080820190506133036000830187612726565b6133106020830186612726565b61331d6040830185613120565b818103606083015261332f8184612744565b905095945050505050565b600060408201905061334f6000830185612726565b61335c6020830184613120565b9392505050565b60006020820190506133786000830184612735565b92915050565b60006020820190508181036000830152613398818461277d565b905092915050565b600060608201905081810360008301526133ba818661277d565b90506133c96020830185613120565b6133d66040830184612726565b949350505050565b600060208201905081810360008301526133f781612866565b9050919050565b60006020820190508181036000830152613417816128cc565b9050919050565b600060208201905081810360008301526134378161294c565b9050919050565b60006020820190508181036000830152613457816129b2565b9050919050565b6000602082019050818103600083015261347781612abe565b9050919050565b6000602082019050818103600083015261349781612b64565b9050919050565b600060208201905081810360008301526134b781612bca565b9050919050565b600060208201905081810360008301526134d781612c30565b9050919050565b600060208201905081810360008301526134f781612c96565b9050919050565b6000602082019050818103600083015261351781612d3c565b9050919050565b6000602082019050818103600083015261353781612d7c565b9050919050565b6000602082019050818103600083015261355781612de2565b9050919050565b6000602082019050818103600083015261357781612e48565b9050919050565b6000602082019050818103600083015261359781612eae565b9050919050565b600060208201905081810360008301526135b781612f54565b9050919050565b600060208201905081810360008301526135d78161303a565b9050919050565b600060208201905081810360008301526135f7816130e0565b9050919050565b60006020820190506136136000830184613120565b92915050565b6000604051905081810181811067ffffffffffffffff821117156136405761363f6139d6565b5b8060405250919050565b600067ffffffffffffffff821115613665576136646139d6565b5b601f19601f8301169050602081019050919050565b60008190508160005260206000209050919050565b600081519050919050565b600081519050919050565b600082825260208201905092915050565b600082825260208201905092915050565b600081905092915050565b60006136dd82613851565b91506136e883613851565b9250827fffffffffffffffffffffffffffffffffffffffffffffffffffffffffffffffff0382111561371d5761371c613949565b5b828201905092915050565b600061373382613851565b915061373e83613851565b92508261374e5761374d613978565b5b828204905092915050565b600061376482613851565b915061376f83613851565b9250817fffffffffffffffffffffffffffffffffffffffffffffffffffffffffffffffff04831182151516156137a8576137a7613949565b5b828202905092915050565b60006137be82613851565b91506137c983613851565b9250828210156137dc576137db613949565b5b828203905092915050565b60006137f282613831565b9050919050565b60008115159050919050565b60007fffffffff0000000000000000000000000000000000000000000000000000000082169050919050565b600073ffffffffffffffffffffffffffffffffffffffff82169050919050565b6000819050919050565b82818337600083830152505050565b60005b8381101561388857808201518184015260208101905061386d565b83811115613897576000848401525b50505050565b600060028204905060018216806138b557607f821691505b602082108114156138c9576138c86139a7565b5b50919050565b60006138da82613851565b91507fffffffffffffffffffffffffffffffffffffffffffffffffffffffffffffffff82141561390d5761390c613949565b5b600182019050919050565b600061392382613851565b915061392e83613851565b92508261393e5761393d613978565b5b828206905092915050565b7f4e487b7100000000000000000000000000000000000000000000000000000000600052601160045260246000fd5b7f4e487b7100000000000000000000000000000000000000000000000000000000600052601260045260246000fd5b7f4e487b7100000000000000000000000000000000000000000000000000000000600052602260045260246000fd5b7f4e487b7100000000000000000000000000000000000000000000000000000000600052604160045260246000fd5b6000601f19601f8301169050919050565b613a1f816137e7565b8114613a2a57600080fd5b50565b613a36816137f9565b8114613a4157600080fd5b50565b613a4d81613805565b8114613a5857600080fd5b50565b613a6481613851565b8114613a6f57600080fd5b5056fe416e204e465420772f20494420257320686173206265656e206d696e74656420746f2025734142434445464748494a4b4c4d4e4f505152535455565758595a6162636465666768696a6b6c6d6e6f707172737475767778797a303132333435363738392b2fa26469706673582212207c96e8e8f5d1b680bc227db1a73dc373794c859e78e350375b0dfc9a1532f09764736f6c634300080000333c73766720786d6c6e733d27687474703a2f2f7777772e77332e6f72672f323030302f73766727207072657365727665417370656374526174696f3d27784d696e594d696e206d656574272076696577426f783d273020302033353020333530273e3c7374796c653e2e62617365207b2066696c6c3a2077686974653b20666f6e742d66616d696c793a2073657269663b20666f6e742d73697a653a20323470783b207d3c2f7374796c653e3c726563742077696474683d273130302527206865696768743d2731303025272066696c6c3d27272f3e3c7465787420783d273530252720793d273530252720636c6173733d27626173652720646f6d696e616e742d626173656c696e653d276d6964646c652720746578742d616e63686f723d276d6964646c65273e",
  "linkReferences": {},
  "deployedLinkReferences": {}
}