{
  "_format": "hh-sol-artifact-1",
  "contractName": "MyEpicNFT",
  "sourceName": "contracts/MyEpicNFT.sol",
  "abi": [
    {
      "inputs": [],
      "stateMutability": "nonpayable",
      "type": "constructor"
    },
    {
      "anonymous": false,
      "inputs": [
        {
          "indexed": true,
          "internalType": "address",
          "name": "owner",
          "type": "address"
        },
        {
          "indexed": true,
          "internalType": "address",
          "name": "approved",
          "type": "address"
        },
        {
          "indexed": true,
          "internalType": "uint256",
          "name": "tokenId",
          "type": "uint256"
        }
      ],
      "name": "Approval",
      "type": "event"
    },
    {
      "anonymous": false,
      "inputs": [
        {
          "indexed": true,
          "internalType": "address",
          "name": "owner",
          "type": "address"
        },
        {
          "indexed": true,
          "internalType": "address",
          "name": "operator",
          "type": "address"
        },
        {
          "indexed": false,
          "internalType": "bool",
          "name": "approved",
          "type": "bool"
        }
      ],
      "name": "ApprovalForAll",
      "type": "event"
    },
    {
      "anonymous": false,
      "inputs": [
        {
          "indexed": false,
          "internalType": "address",
          "name": "sender",
          "type": "address"
        },
        {
          "indexed": false,
          "internalType": "uint256",
          "name": "tokenId",
          "type": "uint256"
        }
      ],
      "name": "NewEpicNFTMinted",
      "type": "event"
    },
    {
      "anonymous": false,
      "inputs": [
        {
          "indexed": true,
          "internalType": "address",
          "name": "from",
          "type": "address"
        },
        {
          "indexed": true,
          "internalType": "address",
          "name": "to",
          "type": "address"
        },
        {
          "indexed": true,
          "internalType": "uint256",
          "name": "tokenId",
          "type": "uint256"
        }
      ],
      "name": "Transfer",
      "type": "event"
    },
    {
      "inputs": [
        {
          "internalType": "address",
          "name": "to",
          "type": "address"
        },
        {
          "internalType": "uint256",
          "name": "tokenId",
          "type": "uint256"
        }
      ],
      "name": "approve",
      "outputs": [],
      "stateMutability": "nonpayable",
      "type": "function"
    },
    {
      "inputs": [
        {
          "internalType": "address",
          "name": "owner",
          "type": "address"
        }
      ],
      "name": "balanceOf",
      "outputs": [
        {
          "internalType": "uint256",
          "name": "",
          "type": "uint256"
        }
      ],
      "stateMutability": "view",
      "type": "function"
    },
    {
      "inputs": [
        {
          "internalType": "uint256",
          "name": "tokenId",
          "type": "uint256"
        }
      ],
      "name": "getApproved",
      "outputs": [
        {
          "internalType": "address",
          "name": "",
          "type": "address"
        }
      ],
      "stateMutability": "view",
      "type": "function"
    },
    {
      "inputs": [
        {
          "internalType": "address",
          "name": "owner",
          "type": "address"
        },
        {
          "internalType": "address",
          "name": "operator",
          "type": "address"
        }
      ],
      "name": "isApprovedForAll",
      "outputs": [
        {
          "internalType": "bool",
          "name": "",
          "type": "bool"
        }
      ],
      "stateMutability": "view",
      "type": "function"
    },
    {
      "inputs": [],
      "name": "makeAnEpicNFT",
      "outputs": [],
      "stateMutability": "nonpayable",
      "type": "function"
    },
    {
      "inputs": [],
      "name": "name",
      "outputs": [
        {
          "internalType": "string",
          "name": "",
          "type": "string"
        }
      ],
      "stateMutability": "view",
      "type": "function"
    },
    {
      "inputs": [
        {
          "internalType": "uint256",
          "name": "tokenId",
          "type": "uint256"
        }
      ],
      "name": "ownerOf",
      "outputs": [
        {
          "internalType": "address",
          "name": "",
          "type": "address"
        }
      ],
      "stateMutability": "view",
      "type": "function"
    },
    {
      "inputs": [
        {
          "internalType": "uint256",
          "name": "tokenId",
          "type": "uint256"
        }
      ],
      "name": "pickRandomColor",
      "outputs": [
        {
          "internalType": "string",
          "name": "",
          "type": "string"
        }
      ],
      "stateMutability": "view",
      "type": "function"
    },
    {
      "inputs": [
        {
          "internalType": "uint256",
          "name": "tokenId",
          "type": "uint256"
        }
      ],
      "name": "pickRandomFirstWord",
      "outputs": [
        {
          "internalType": "string",
          "name": "",
          "type": "string"
        }
      ],
      "stateMutability": "view",
      "type": "function"
    },
    {
      "inputs": [
        {
          "internalType": "uint256",
          "name": "tokenId",
          "type": "uint256"
        }
      ],
      "name": "pickRandomSecondWord",
      "outputs": [
        {
          "internalType": "string",
          "name": "",
          "type": "string"
        }
      ],
      "stateMutability": "view",
      "type": "function"
    },
    {
      "inputs": [
        {
          "internalType": "uint256",
          "name": "tokenId",
          "type": "uint256"
        }
      ],
      "name": "pickRandomThirdWord",
      "outputs": [
        {
          "internalType": "string",
          "name": "",
          "type": "string"
        }
      ],
      "stateMutability": "view",
      "type": "function"
    },
    {
      "inputs": [
        {
          "internalType": "address",
          "name": "from",
          "type": "address"
        },
        {
          "internalType": "address",
          "name": "to",
          "type": "address"
        },
        {
          "internalType": "uint256",
          "name": "tokenId",
          "type": "uint256"
        }
      ],
      "name": "safeTransferFrom",
      "outputs": [],
      "stateMutability": "nonpayable",
      "type": "function"
    },
    {
      "inputs": [
        {
          "internalType": "address",
          "name": "from",
          "type": "address"
        },
        {
          "internalType": "address",
          "name": "to",
          "type": "address"
        },
        {
          "internalType": "uint256",
          "name": "tokenId",
          "type": "uint256"
        },
        {
          "internalType": "bytes",
          "name": "_data",
          "type": "bytes"
        }
      ],
      "name": "safeTransferFrom",
      "outputs": [],
      "stateMutability": "nonpayable",
      "type": "function"
    },
    {
      "inputs": [
        {
          "internalType": "address",
          "name": "operator",
          "type": "address"
        },
        {
          "internalType": "bool",
          "name": "approved",
          "type": "bool"
        }
      ],
      "name": "setApprovalForAll",
      "outputs": [],
      "stateMutability": "nonpayable",
      "type": "function"
    },
    {
      "inputs": [
        {
          "internalType": "bytes4",
          "name": "interfaceId",
          "type": "bytes4"
        }
      ],
      "name": "supportsInterface",
      "outputs": [
        {
          "internalType": "bool",
          "name": "",
          "type": "bool"
        }
      ],
      "stateMutability": "view",
      "type": "function"
    },
    {
      "inputs": [],
      "name": "symbol",
      "outputs": [
        {
          "internalType": "string",
          "name": "",
          "type": "string"
        }
      ],
      "stateMutability": "view",
      "type": "function"
    },
    {
      "inputs": [
        {
          "internalType": "uint256",
          "name": "tokenId",
          "type": "uint256"
        }
      ],
      "name": "tokenURI",
      "outputs": [
        {
          "internalType": "string",
          "name": "",
          "type": "string"
        }
      ],
      "stateMutability": "view",
      "type": "function"
    },
    {
      "inputs": [
        {
          "internalType": "address",
          "name": "from",
          "type": "address"
        },
        {
          "internalType": "address",
          "name": "to",
          "type": "address"
        },
        {
          "internalType": "uint256",
          "name": "tokenId",
          "type": "uint256"
        }
      ],
      "name": "transferFrom",
      "outputs": [],
      "stateMutability": "nonpayable",
      "type": "function"
    }
  ],
  "bytecode": "0x608060405260405180610100016040528060d381526020016200433960d39139600890805190602001906200003692919062000715565b506040518060800160405280605681526020016200440c60569139600990805190602001906200006892919062000715565b506040518060c001604052806040518060400160405280600681526020017f416374697665000000000000000000000000000000000000000000000000000081525081526020016040518060400160405280600781526020017f486f706566756c0000000000000000000000000000000000000000000000000081525081526020016040518060400160405280600881526020017f5265636b6c65737300000000000000000000000000000000000000000000000081525081526020016040518060400160405280600581526020017f4e6f69737900000000000000000000000000000000000000000000000000000081525081526020016040518060400160405280600481526020017f536c6f770000000000000000000000000000000000000000000000000000000081525081526020016040518060400160405280600781526020017f536861646f777900000000000000000000000000000000000000000000000000815250815250600a906006620001e6929190620007a6565b506040518060c001604052806040518060400160405280600881526020017f416d65726963616e00000000000000000000000000000000000000000000000081525081526020016040518060400160405280600481526020017f4575726f0000000000000000000000000000000000000000000000000000000081525081526020016040518060400160405280600581526020017f314869766500000000000000000000000000000000000000000000000000000081525081526020016040518060400160405280600581526020017f537570657200000000000000000000000000000000000000000000000000000081525081526020016040518060400160405280600581526020017f4e6572647900000000000000000000000000000000000000000000000000000081525081526020016040518060400160405280600581526020017f4765656b79000000000000000000000000000000000000000000000000000000815250815250600b90600662000364929190620007a6565b506040518060c001604052806040518060400160405280600381526020017f426565000000000000000000000000000000000000000000000000000000000081525081526020016040518060400160405280600481526020017f576173700000000000000000000000000000000000000000000000000000000081525081526020016040518060400160405280600881526020017f486f6e657962656500000000000000000000000000000000000000000000000081525081526020016040518060400160405280600681526020017f57696e6e6572000000000000000000000000000000000000000000000000000081525081526020016040518060400160405280600581526020017f436f64657200000000000000000000000000000000000000000000000000000081525081526020016040518060400160405280600581526020017f456c697465000000000000000000000000000000000000000000000000000000815250815250600c906006620004e2929190620007a6565b506040518060c001604052806040518060400160405280600381526020017f726564000000000000000000000000000000000000000000000000000000000081525081526020016040518060400160405280600781526020017f233038433241380000000000000000000000000000000000000000000000000081525081526020016040518060400160405280600581526020017f626c61636b00000000000000000000000000000000000000000000000000000081525081526020016040518060400160405280600681526020017f79656c6c6f77000000000000000000000000000000000000000000000000000081525081526020016040518060400160405280600481526020017f626c75650000000000000000000000000000000000000000000000000000000081525081526020016040518060400160405280600581526020017f677265656e000000000000000000000000000000000000000000000000000000815250815250600d90600662000660929190620007a6565b503480156200066e57600080fd5b506040518060400160405280600681526020017f4265654e465400000000000000000000000000000000000000000000000000008152506040518060400160405280600481526020017f424e4654000000000000000000000000000000000000000000000000000000008152508160009080519060200190620006f392919062000715565b5080600190805190602001906200070c92919062000715565b505050620008ff565b82805462000723906200089a565b90600052602060002090601f01602090048101928262000747576000855562000793565b82601f106200076257805160ff191683800117855562000793565b8280016001018555821562000793579182015b828111156200079257825182559160200191906001019062000775565b5b509050620007a291906200080d565b5090565b828054828255906000526020600020908101928215620007fa579160200282015b82811115620007f9578251829080519060200190620007e892919062000715565b5091602001919060010190620007c7565b5b5090506200080991906200082c565b5090565b5b80821115620008285760008160009055506001016200080e565b5090565b5b8082111562000850576000818162000846919062000854565b506001016200082d565b5090565b50805462000862906200089a565b6000825580601f1062000876575062000897565b601f0160209004906000526020600020908101906200089691906200080d565b5b50565b60006002820490506001821680620008b357607f821691505b60208210811415620008ca57620008c9620008d0565b5b50919050565b7f4e487b7100000000000000000000000000000000000000000000000000000000600052602260045260246000fd5b613a2a806200090f6000396000f3fe608060405234801561001057600080fd5b50600436106101165760003560e01c806370a08231116100a2578063b88d4fde11610071578063b88d4fde14610317578063c575757a14610333578063c87b56dd14610363578063de9d132f14610393578063e985e9c51461039d57610116565b806370a082311461027d57806395d89b41146102ad578063a22cb465146102cb578063b187301f146102e757610116565b806323b872dd116100e957806323b872dd146101b55780632de38d68146101d157806342842e0e14610201578063514dc8c61461021d5780636352211e1461024d57610116565b806301ffc9a71461011b57806306fdde031461014b578063081812fc14610169578063095ea7b314610199575b600080fd5b61013560048036038101906101309190612628565b6103cd565b60405161014291906132a0565b60405180910390f35b6101536104af565b60405161016091906132bb565b60405180910390f35b610183600480360381019061017e919061267a565b610541565b6040516101909190613210565b60405180910390f35b6101b360048036038101906101ae91906125ec565b6105c6565b005b6101cf60048036038101906101ca91906124e6565b6106de565b005b6101eb60048036038101906101e6919061267a565b61073e565b6040516101f891906132bb565b60405180910390f35b61021b600480360381019061021691906124e6565b61085c565b005b6102376004803603810190610232919061267a565b61087c565b60405161024491906132bb565b60405180910390f35b6102676004803603810190610262919061267a565b61099a565b6040516102749190613210565b60405180910390f35b61029760048036038101906102929190612481565b610a4c565b6040516102a4919061351b565b60405180910390f35b6102b5610b04565b6040516102c291906132bb565b60405180910390f35b6102e560048036038101906102e091906125b0565b610b96565b005b61030160048036038101906102fc919061267a565b610d17565b60405161030e91906132bb565b60405180910390f35b610331600480360381019061032c9190612535565b610e35565b005b61034d6004803603810190610348919061267a565b610e97565b60405161035a91906132bb565b60405180910390f35b61037d6004803603810190610378919061267a565b610fb5565b60405161038a91906132bb565b60405180910390f35b61039b611107565b005b6103b760048036038101906103b291906124aa565b611301565b6040516103c491906132a0565b60405180910390f35b60007f80ac58cd000000000000000000000000000000000000000000000000000000007bffffffffffffffffffffffffffffffffffffffffffffffffffffffff1916827bffffffffffffffffffffffffffffffffffffffffffffffffffffffff1916148061049857507f5b5e139f000000000000000000000000000000000000000000000000000000007bffffffffffffffffffffffffffffffffffffffffffffffffffffffff1916827bffffffffffffffffffffffffffffffffffffffffffffffffffffffff1916145b806104a857506104a782611395565b5b9050919050565b6060600080546104be906137ba565b80601f01602080910402602001604051908101604052809291908181526020018280546104ea906137ba565b80156105375780601f1061050c57610100808354040283529160200191610537565b820191906000526020600020905b81548152906001019060200180831161051a57829003601f168201915b5050505050905090565b600061054c826113ff565b61058b576040517f08c379a00000000000000000000000000000000000000000000000000000000081526004016105829061347b565b60405180910390fd5b6004600083815260200190815260200160002060009054906101000a900473ffffffffffffffffffffffffffffffffffffffff169050919050565b60006105d18261099a565b90508073ffffffffffffffffffffffffffffffffffffffff168373ffffffffffffffffffffffffffffffffffffffff161415610642576040517f08c379a0000000000000000000000000000000000000000000000000000000008152600401610639906134db565b60405180910390fd5b8073ffffffffffffffffffffffffffffffffffffffff1661066161146b565b73ffffffffffffffffffffffffffffffffffffffff161480610690575061068f8161068a61146b565b611301565b5b6106cf576040517f08c379a00000000000000000000000000000000000000000000000000000000081526004016106c6906133bb565b60405180910390fd5b6106d98383611473565b505050565b6106ef6106e961146b565b8261152c565b61072e576040517f08c379a0000000000000000000000000000000000000000000000000000000008152600401610725906134fb565b60405180910390fd5b61073983838361160a565b505050565b6060600061077261074e84611866565b60405160200161075e91906131aa565b604051602081830303815290604052611a13565b9050600a80549050816107859190613835565b9050600a81815481106107c1577f4e487b7100000000000000000000000000000000000000000000000000000000600052603260045260246000fd5b9060005260206000200180546107d6906137ba565b80601f0160208091040260200160405190810160405280929190818152602001828054610802906137ba565b801561084f5780601f106108245761010080835404028352916020019161084f565b820191906000526020600020905b81548152906001019060200180831161083257829003601f168201915b5050505050915050919050565b61087783838360405180602001604052806000815250610e35565b505050565b606060006108b061088c84611866565b60405160200161089c91906131ee565b604051602081830303815290604052611a13565b9050600d80549050816108c39190613835565b9050600d81815481106108ff577f4e487b7100000000000000000000000000000000000000000000000000000000600052603260045260246000fd5b906000526020600020018054610914906137ba565b80601f0160208091040260200160405190810160405280929190818152602001828054610940906137ba565b801561098d5780601f106109625761010080835404028352916020019161098d565b820191906000526020600020905b81548152906001019060200180831161097057829003601f168201915b5050505050915050919050565b6000806002600084815260200190815260200160002060009054906101000a900473ffffffffffffffffffffffffffffffffffffffff169050600073ffffffffffffffffffffffffffffffffffffffff168173ffffffffffffffffffffffffffffffffffffffff161415610a43576040517f08c379a0000000000000000000000000000000000000000000000000000000008152600401610a3a906133fb565b60405180910390fd5b80915050919050565b60008073ffffffffffffffffffffffffffffffffffffffff168273ffffffffffffffffffffffffffffffffffffffff161415610abd576040517f08c379a0000000000000000000000000000000000000000000000000000000008152600401610ab4906133db565b60405180910390fd5b600360008373ffffffffffffffffffffffffffffffffffffffff1673ffffffffffffffffffffffffffffffffffffffff168152602001908152602001600020549050919050565b606060018054610b13906137ba565b80601f0160208091040260200160405190810160405280929190818152602001828054610b3f906137ba565b8015610b8c5780601f10610b6157610100808354040283529160200191610b8c565b820191906000526020600020905b815481529060010190602001808311610b6f57829003601f168201915b5050505050905090565b610b9e61146b565b73ffffffffffffffffffffffffffffffffffffffff168273ffffffffffffffffffffffffffffffffffffffff161415610c0c576040517f08c379a0000000000000000000000000000000000000000000000000000000008152600401610c039061337b565b60405180910390fd5b8060056000610c1961146b565b73ffffffffffffffffffffffffffffffffffffffff1673ffffffffffffffffffffffffffffffffffffffff16815260200190815260200160002060008473ffffffffffffffffffffffffffffffffffffffff1673ffffffffffffffffffffffffffffffffffffffff16815260200190815260200160002060006101000a81548160ff0219169083151502179055508173ffffffffffffffffffffffffffffffffffffffff16610cc661146b565b73ffffffffffffffffffffffffffffffffffffffff167f17307eab39ab6107e8899845ad3d59bd9653f200f220920489ca2b5937696c3183604051610d0b91906132a0565b60405180910390a35050565b60606000610d4b610d2784611866565b604051602001610d379190613143565b604051602081830303815290604052611a13565b9050600b8054905081610d5e9190613835565b9050600b8181548110610d9a577f4e487b7100000000000000000000000000000000000000000000000000000000600052603260045260246000fd5b906000526020600020018054610daf906137ba565b80601f0160208091040260200160405190810160405280929190818152602001828054610ddb906137ba565b8015610e285780601f10610dfd57610100808354040283529160200191610e28565b820191906000526020600020905b815481529060010190602001808311610e0b57829003601f168201915b5050505050915050919050565b610e46610e4061146b565b8361152c565b610e85576040517f08c379a0000000000000000000000000000000000000000000000000000000008152600401610e7c906134fb565b60405180910390fd5b610e9184848484611a46565b50505050565b60606000610ecb610ea784611866565b604051602001610eb79190613121565b604051602081830303815290604052611a13565b9050600c8054905081610ede9190613835565b9050600c8181548110610f1a577f4e487b7100000000000000000000000000000000000000000000000000000000600052603260045260246000fd5b906000526020600020018054610f2f906137ba565b80601f0160208091040260200160405190810160405280929190818152602001828054610f5b906137ba565b8015610fa85780601f10610f7d57610100808354040283529160200191610fa8565b820191906000526020600020905b815481529060010190602001808311610f8b57829003601f168201915b5050505050915050919050565b6060610fc0826113ff565b610fff576040517f08c379a0000000000000000000000000000000000000000000000000000000008152600401610ff69061345b565b60405180910390fd5b600060066000848152602001908152602001600020805461101f906137ba565b80601f016020809104026020016040519081016040528092919081815260200182805461104b906137ba565b80156110985780601f1061106d57610100808354040283529160200191611098565b820191906000526020600020905b81548152906001019060200180831161107b57829003601f168201915b5050505050905060006110a9611aa2565b90506000815114156110bf578192505050611102565b6000825111156110f45780826040516020016110dc929190613083565b60405160208183030381529060405292505050611102565b6110fd84611ab9565b925050505b919050565b60006111136007611b60565b905060006111208261073e565b9050600061112d83610d17565b9050600061113a84610e97565b90506000838383604051602001611153939291906130a7565b6040516020818303038152906040529050600061116f8661087c565b9050600060088260098560405160200161118c94939291906130d8565b604051602081830303815290604052905060006111d1846111ac84611b6e565b6040516020016111bd929190613165565b604051602081830303815290604052611b6e565b90506000816040516020016111e691906131cc565b60405160208183030381529060405290506112356040518060400160405280601581526020017f0a2d2d2d2d2d2d2d2d2d2d2d2d2d2d2d2d2d2d2d2d0000000000000000000000815250611d2c565b61123e81611d2c565b61127c6040518060400160405280601581526020017f2d2d2d2d2d2d2d2d2d2d2d2d2d2d2d2d2d2d2d2d0a0000000000000000000000815250611d2c565b611286338a611dc5565b6112908982611de3565b6112b3604051806060016040528060258152602001613990602591398a33611e57565b6112bd6007611ef6565b7febb98688741ffa4c7589bf325de30cf7becb63de567842e1ccdb6cb949fdc82c338a6040516112ee929190613277565b60405180910390a1505050505050505050565b6000600560008473ffffffffffffffffffffffffffffffffffffffff1673ffffffffffffffffffffffffffffffffffffffff16815260200190815260200160002060008373ffffffffffffffffffffffffffffffffffffffff1673ffffffffffffffffffffffffffffffffffffffff16815260200190815260200160002060009054906101000a900460ff16905092915050565b60007f01ffc9a7000000000000000000000000000000000000000000000000000000007bffffffffffffffffffffffffffffffffffffffffffffffffffffffff1916827bffffffffffffffffffffffffffffffffffffffffffffffffffffffff1916149050919050565b60008073ffffffffffffffffffffffffffffffffffffffff166002600084815260200190815260200160002060009054906101000a900473ffffffffffffffffffffffffffffffffffffffff1673ffffffffffffffffffffffffffffffffffffffff1614159050919050565b600033905090565b816004600083815260200190815260200160002060006101000a81548173ffffffffffffffffffffffffffffffffffffffff021916908373ffffffffffffffffffffffffffffffffffffffff160217905550808273ffffffffffffffffffffffffffffffffffffffff166114e68361099a565b73ffffffffffffffffffffffffffffffffffffffff167f8c5be1e5ebec7d5bd14f71427d1e84f3dd0314c0f7b2291e5b200ac8c7c3b92560405160405180910390a45050565b6000611537826113ff565b611576576040517f08c379a000000000000000000000000000000000000000000000000000000000815260040161156d9061339b565b60405180910390fd5b60006115818361099a565b90508073ffffffffffffffffffffffffffffffffffffffff168473ffffffffffffffffffffffffffffffffffffffff1614806115f057508373ffffffffffffffffffffffffffffffffffffffff166115d884610541565b73ffffffffffffffffffffffffffffffffffffffff16145b8061160157506116008185611301565b5b91505092915050565b8273ffffffffffffffffffffffffffffffffffffffff1661162a8261099a565b73ffffffffffffffffffffffffffffffffffffffff1614611680576040517f08c379a00000000000000000000000000000000000000000000000000000000081526004016116779061349b565b60405180910390fd5b600073ffffffffffffffffffffffffffffffffffffffff168273ffffffffffffffffffffffffffffffffffffffff1614156116f0576040517f08c379a00000000000000000000000000000000000000000000000000000000081526004016116e79061335b565b60405180910390fd5b6116fb838383611f0c565b611706600082611473565b6001600360008573ffffffffffffffffffffffffffffffffffffffff1673ffffffffffffffffffffffffffffffffffffffff168152602001908152602001600020600082825461175691906136d0565b925050819055506001600360008473ffffffffffffffffffffffffffffffffffffffff1673ffffffffffffffffffffffffffffffffffffffff16815260200190815260200160002060008282546117ad91906135ef565b92505081905550816002600083815260200190815260200160002060006101000a81548173ffffffffffffffffffffffffffffffffffffffff021916908373ffffffffffffffffffffffffffffffffffffffff160217905550808273ffffffffffffffffffffffffffffffffffffffff168473ffffffffffffffffffffffffffffffffffffffff167fddf252ad1be2c89b69c2b068fc378daa952ba7f163c4a11628f55a4df523b3ef60405160405180910390a4505050565b606060008214156118ae576040518060400160405280600181526020017f30000000000000000000000000000000000000000000000000000000000000008152509050611a0e565b600082905060005b600082146118e05780806118c9906137ec565b915050600a826118d99190613645565b91506118b6565b60008167ffffffffffffffff811115611922577f4e487b7100000000000000000000000000000000000000000000000000000000600052604160045260246000fd5b6040519080825280601f01601f1916602001820160405280156119545781602001600182028036833780820191505090505b5090505b60008514611a075760018261196d91906136d0565b9150600a8561197c9190613835565b603061198891906135ef565b60f81b8183815181106119c4577f4e487b7100000000000000000000000000000000000000000000000000000000600052603260045260246000fd5b60200101907effffffffffffffffffffffffffffffffffffffffffffffffffffffffffffff1916908160001a905350600a85611a009190613645565b9450611958565b8093505050505b919050565b600081604051602001611a26919061306c565b6040516020818303038152906040528051906020012060001c9050919050565b611a5184848461160a565b611a5d84848484611f11565b611a9c576040517f08c379a0000000000000000000000000000000000000000000000000000000008152600401611a939061331b565b60405180910390fd5b50505050565b606060405180602001604052806000815250905090565b6060611ac4826113ff565b611b03576040517f08c379a0000000000000000000000000000000000000000000000000000000008152600401611afa906134bb565b60405180910390fd5b6000611b0d611aa2565b90506000815111611b2d5760405180602001604052806000815250611b58565b80611b3784611866565b604051602001611b48929190613083565b6040516020818303038152906040525b915050919050565b600081600001549050919050565b60606000825190506000811415611b975760405180602001604052806000815250915050611d27565b60006003600283611ba891906135ef565b611bb29190613645565b6004611bbe9190613676565b90506000602082611bcf91906135ef565b67ffffffffffffffff811115611c0e577f4e487b7100000000000000000000000000000000000000000000000000000000600052604160045260246000fd5b6040519080825280601f01601f191660200182016040528015611c405781602001600182028036833780820191505090505b50905060006040518060600160405280604081526020016139b5604091399050600181016020830160005b86811015611ce45760038101905062ffffff818a015116603f8160121c168401518060081b905060ff603f83600c1c1686015116810190508060081b905060ff603f8360061c1686015116810190508060081b905060ff603f831686015116810190508060e01b90508084526004840193505050611c6b565b506003860660018114611cfe5760028114611d0e57611d19565b613d3d60f01b6002830352611d19565b603d60f81b60018303525b508484525050819450505050505b919050565b611dc281604051602401611d4091906132bb565b6040516020818303038152906040527f41304fac000000000000000000000000000000000000000000000000000000007bffffffffffffffffffffffffffffffffffffffffffffffffffffffff19166020820180517bffffffffffffffffffffffffffffffffffffffffffffffffffffffff83818316178352505050506120a8565b50565b611ddf8282604051806020016040528060008152506120d1565b5050565b611dec826113ff565b611e2b576040517f08c379a0000000000000000000000000000000000000000000000000000000008152600401611e229061341b565b60405180910390fd5b80600660008481526020019081526020016000209080519060200190611e5292919061230d565b505050565b611ef1838383604051602401611e6f939291906132dd565b6040516020818303038152906040527fe3849f79000000000000000000000000000000000000000000000000000000007bffffffffffffffffffffffffffffffffffffffffffffffffffffffff19166020820180517bffffffffffffffffffffffffffffffffffffffffffffffffffffffff83818316178352505050506120a8565b505050565b6001816000016000828254019250508190555050565b505050565b6000611f328473ffffffffffffffffffffffffffffffffffffffff1661212c565b1561209b578373ffffffffffffffffffffffffffffffffffffffff1663150b7a02611f5b61146b565b8786866040518563ffffffff1660e01b8152600401611f7d949392919061322b565b602060405180830381600087803b158015611f9757600080fd5b505af1925050508015611fc857506040513d601f19601f82011682018060405250810190611fc59190612651565b60015b61204b573d8060008114611ff8576040519150601f19603f3d011682016040523d82523d6000602084013e611ffd565b606091505b50600081511415612043576040517f08c379a000000000000000000000000000000000000000000000000000000000815260040161203a9061331b565b60405180910390fd5b805181602001fd5b63150b7a0260e01b7bffffffffffffffffffffffffffffffffffffffffffffffffffffffff1916817bffffffffffffffffffffffffffffffffffffffffffffffffffffffff1916149150506120a0565b600190505b949350505050565b60008151905060006a636f6e736f6c652e6c6f679050602083016000808483855afa5050505050565b6120db838361213f565b6120e86000848484611f11565b612127576040517f08c379a000000000000000000000000000000000000000000000000000000000815260040161211e9061331b565b60405180910390fd5b505050565b600080823b905060008111915050919050565b600073ffffffffffffffffffffffffffffffffffffffff168273ffffffffffffffffffffffffffffffffffffffff1614156121af576040517f08c379a00000000000000000000000000000000000000000000000000000000081526004016121a69061343b565b60405180910390fd5b6121b8816113ff565b156121f8576040517f08c379a00000000000000000000000000000000000000000000000000000000081526004016121ef9061333b565b60405180910390fd5b61220460008383611f0c565b6001600360008473ffffffffffffffffffffffffffffffffffffffff1673ffffffffffffffffffffffffffffffffffffffff168152602001908152602001600020600082825461225491906135ef565b92505081905550816002600083815260200190815260200160002060006101000a81548173ffffffffffffffffffffffffffffffffffffffff021916908373ffffffffffffffffffffffffffffffffffffffff160217905550808273ffffffffffffffffffffffffffffffffffffffff16600073ffffffffffffffffffffffffffffffffffffffff167fddf252ad1be2c89b69c2b068fc378daa952ba7f163c4a11628f55a4df523b3ef60405160405180910390a45050565b828054612319906137ba565b90600052602060002090601f01602090048101928261233b5760008555612382565b82601f1061235457805160ff1916838001178555612382565b82800160010185558215612382579182015b82811115612381578251825591602001919060010190612366565b5b50905061238f9190612393565b5090565b5b808211156123ac576000816000905550600101612394565b5090565b60006123c36123be84613567565b613536565b9050828152602081018484840111156123db57600080fd5b6123e6848285613778565b509392505050565b6000813590506123fd81613933565b92915050565b6000813590506124128161394a565b92915050565b60008135905061242781613961565b92915050565b60008151905061243c81613961565b92915050565b600082601f83011261245357600080fd5b81356124638482602086016123b0565b91505092915050565b60008135905061247b81613978565b92915050565b60006020828403121561249357600080fd5b60006124a1848285016123ee565b91505092915050565b600080604083850312156124bd57600080fd5b60006124cb858286016123ee565b92505060206124dc858286016123ee565b9150509250929050565b6000806000606084860312156124fb57600080fd5b6000612509868287016123ee565b935050602061251a868287016123ee565b925050604061252b8682870161246c565b9150509250925092565b6000806000806080858703121561254b57600080fd5b6000612559878288016123ee565b945050602061256a878288016123ee565b935050604061257b8782880161246c565b925050606085013567ffffffffffffffff81111561259857600080fd5b6125a487828801612442565b91505092959194509250565b600080604083850312156125c357600080fd5b60006125d1858286016123ee565b92505060206125e285828601612403565b9150509250929050565b600080604083850312156125ff57600080fd5b600061260d858286016123ee565b925050602061261e8582860161246c565b9150509250929050565b60006020828403121561263a57600080fd5b600061264884828501612418565b91505092915050565b60006020828403121561266357600080fd5b60006126718482850161242d565b91505092915050565b60006020828403121561268c57600080fd5b600061269a8482850161246c565b91505092915050565b6126ac81613704565b82525050565b6126bb81613716565b82525050565b60006126cc826135ac565b6126d681856135c2565b93506126e6818560208601613787565b6126ef81613922565b840191505092915050565b6000612705826135b7565b61270f81856135d3565b935061271f818560208601613787565b61272881613922565b840191505092915050565b600061273e826135b7565b61274881856135e4565b9350612758818560208601613787565b80840191505092915050565b60008154612771816137ba565b61277b81866135e4565b9450600182166000811461279657600181146127a7576127da565b60ff198316865281860193506127da565b6127b085613597565b60005b838110156127d2578154818901526001820191506020810190506127b3565b838801955050505b50505092915050565b60006127f06032836135d3565b91507f4552433732313a207472616e7366657220746f206e6f6e20455243373231526560008301527f63656976657220696d706c656d656e74657200000000000000000000000000006020830152604082019050919050565b6000612856601c836135d3565b91507f4552433732313a20746f6b656e20616c7265616479206d696e746564000000006000830152602082019050919050565b6000612896600a836135e4565b91507f54484952445f574f5244000000000000000000000000000000000000000000006000830152600a82019050919050565b60006128d66024836135d3565b91507f4552433732313a207472616e7366657220746f20746865207a65726f2061646460008301527f72657373000000000000000000000000000000000000000000000000000000006020830152604082019050919050565b600061293c6019836135d3565b91507f4552433732313a20617070726f766520746f2063616c6c6572000000000000006000830152602082019050919050565b600061297c6060836135e4565b91507f222c20226465736372697074696f6e223a20224c696d6974656420456469746960008301527f6f6e3a2031686976652062656520636f6c6c656374696f6e2e222c2022696d6160208301527f6765223a2022646174613a696d6167652f7376672b786d6c3b6261736536342c6040830152606082019050919050565b6000612a08600b836135e4565b91507f5345434f4e445f574f52440000000000000000000000000000000000000000006000830152600b82019050919050565b6000612a48602c836135d3565b91507f4552433732313a206f70657261746f7220717565727920666f72206e6f6e657860008301527f697374656e7420746f6b656e00000000000000000000000000000000000000006020830152604082019050919050565b6000612aae600d836135e4565b91507f3c2f746578743e3c2f7376673e000000000000000000000000000000000000006000830152600d82019050919050565b6000612aee6038836135d3565b91507f4552433732313a20617070726f76652063616c6c6572206973206e6f74206f7760008301527f6e6572206e6f7220617070726f76656420666f7220616c6c00000000000000006020830152604082019050919050565b6000612b54602a836135d3565b91507f4552433732313a2062616c616e636520717565727920666f7220746865207a6560008301527f726f2061646472657373000000000000000000000000000000000000000000006020830152604082019050919050565b6000612bba6029836135d3565b91507f4552433732313a206f776e657220717565727920666f72206e6f6e657869737460008301527f656e7420746f6b656e00000000000000000000000000000000000000000000006020830152604082019050919050565b6000612c20602e836135d3565b91507f45524337323155524953746f726167653a2055524920736574206f66206e6f6e60008301527f6578697374656e7420746f6b656e0000000000000000000000000000000000006020830152604082019050919050565b6000612c866002836135e4565b91507f227d0000000000000000000000000000000000000000000000000000000000006000830152600282019050919050565b6000612cc66020836135d3565b91507f4552433732313a206d696e7420746f20746865207a65726f20616464726573736000830152602082019050919050565b6000612d066031836135d3565b91507f45524337323155524953746f726167653a2055524920717565727920666f722060008301527f6e6f6e6578697374656e7420746f6b656e0000000000000000000000000000006020830152604082019050919050565b6000612d6c602c836135d3565b91507f4552433732313a20617070726f76656420717565727920666f72206e6f6e657860008301527f697374656e7420746f6b656e00000000000000000000000000000000000000006020830152604082019050919050565b6000612dd26029836135d3565b91507f4552433732313a207472616e73666572206f6620746f6b656e2074686174206960008301527f73206e6f74206f776e00000000000000000000000000000000000000000000006020830152604082019050919050565b6000612e38602f836135d3565b91507f4552433732314d657461646174613a2055524920717565727920666f72206e6f60008301527f6e6578697374656e7420746f6b656e00000000000000000000000000000000006020830152604082019050919050565b6000612e9e600a836135e4565b91507f7b226e616d65223a2022000000000000000000000000000000000000000000006000830152600a82019050919050565b6000612ede6021836135d3565b91507f4552433732313a20617070726f76616c20746f2063757272656e74206f776e6560008301527f72000000000000000000000000000000000000000000000000000000000000006020830152604082019050919050565b6000612f44600a836135e4565b91507f46495253545f574f5244000000000000000000000000000000000000000000006000830152600a82019050919050565b6000612f84601d836135e4565b91507f646174613a6170706c69636174696f6e2f6a736f6e3b6261736536342c0000006000830152601d82019050919050565b6000612fc46031836135d3565b91507f4552433732313a207472616e736665722063616c6c6572206973206e6f74206f60008301527f776e6572206e6f7220617070726f7665640000000000000000000000000000006020830152604082019050919050565b600061302a6005836135e4565b91507f434f4c4f520000000000000000000000000000000000000000000000000000006000830152600582019050919050565b6130668161376e565b82525050565b60006130788284612733565b915081905092915050565b600061308f8285612733565b915061309b8284612733565b91508190509392505050565b60006130b38286612733565b91506130bf8285612733565b91506130cb8284612733565b9150819050949350505050565b60006130e48287612764565b91506130f08286612733565b91506130fc8285612764565b91506131088284612733565b915061311382612aa1565b915081905095945050505050565b600061312c82612889565b91506131388284612733565b915081905092915050565b600061314e826129fb565b915061315a8284612733565b915081905092915050565b600061317082612e91565b915061317c8285612733565b91506131878261296f565b91506131938284612733565b915061319e82612c79565b91508190509392505050565b60006131b582612f37565b91506131c18284612733565b915081905092915050565b60006131d782612f77565b91506131e38284612733565b915081905092915050565b60006131f98261301d565b91506132058284612733565b915081905092915050565b600060208201905061322560008301846126a3565b92915050565b600060808201905061324060008301876126a3565b61324d60208301866126a3565b61325a604083018561305d565b818103606083015261326c81846126c1565b905095945050505050565b600060408201905061328c60008301856126a3565b613299602083018461305d565b9392505050565b60006020820190506132b560008301846126b2565b92915050565b600060208201905081810360008301526132d581846126fa565b905092915050565b600060608201905081810360008301526132f781866126fa565b9050613306602083018561305d565b61331360408301846126a3565b949350505050565b60006020820190508181036000830152613334816127e3565b9050919050565b6000602082019050818103600083015261335481612849565b9050919050565b60006020820190508181036000830152613374816128c9565b9050919050565b600060208201905081810360008301526133948161292f565b9050919050565b600060208201905081810360008301526133b481612a3b565b9050919050565b600060208201905081810360008301526133d481612ae1565b9050919050565b600060208201905081810360008301526133f481612b47565b9050919050565b6000602082019050818103600083015261341481612bad565b9050919050565b6000602082019050818103600083015261343481612c13565b9050919050565b6000602082019050818103600083015261345481612cb9565b9050919050565b6000602082019050818103600083015261347481612cf9565b9050919050565b6000602082019050818103600083015261349481612d5f565b9050919050565b600060208201905081810360008301526134b481612dc5565b9050919050565b600060208201905081810360008301526134d481612e2b565b9050919050565b600060208201905081810360008301526134f481612ed1565b9050919050565b6000602082019050818103600083015261351481612fb7565b9050919050565b6000602082019050613530600083018461305d565b92915050565b6000604051905081810181811067ffffffffffffffff8211171561355d5761355c6138f3565b5b8060405250919050565b600067ffffffffffffffff821115613582576135816138f3565b5b601f19601f8301169050602081019050919050565b60008190508160005260206000209050919050565b600081519050919050565b600081519050919050565b600082825260208201905092915050565b600082825260208201905092915050565b600081905092915050565b60006135fa8261376e565b91506136058361376e565b9250827fffffffffffffffffffffffffffffffffffffffffffffffffffffffffffffffff0382111561363a57613639613866565b5b828201905092915050565b60006136508261376e565b915061365b8361376e565b92508261366b5761366a613895565b5b828204905092915050565b60006136818261376e565b915061368c8361376e565b9250817fffffffffffffffffffffffffffffffffffffffffffffffffffffffffffffffff04831182151516156136c5576136c4613866565b5b828202905092915050565b60006136db8261376e565b91506136e68361376e565b9250828210156136f9576136f8613866565b5b828203905092915050565b600061370f8261374e565b9050919050565b60008115159050919050565b60007fffffffff0000000000000000000000000000000000000000000000000000000082169050919050565b600073ffffffffffffffffffffffffffffffffffffffff82169050919050565b6000819050919050565b82818337600083830152505050565b60005b838110156137a557808201518184015260208101905061378a565b838111156137b4576000848401525b50505050565b600060028204905060018216806137d257607f821691505b602082108114156137e6576137e56138c4565b5b50919050565b60006137f78261376e565b91507fffffffffffffffffffffffffffffffffffffffffffffffffffffffffffffffff82141561382a57613829613866565b5b600182019050919050565b60006138408261376e565b915061384b8361376e565b92508261385b5761385a613895565b5b828206905092915050565b7f4e487b7100000000000000000000000000000000000000000000000000000000600052601160045260246000fd5b7f4e487b7100000000000000000000000000000000000000000000000000000000600052601260045260246000fd5b7f4e487b7100000000000000000000000000000000000000000000000000000000600052602260045260246000fd5b7f4e487b7100000000000000000000000000000000000000000000000000000000600052604160045260246000fd5b6000601f19601f8301169050919050565b61393c81613704565b811461394757600080fd5b50565b61395381613716565b811461395e57600080fd5b50565b61396a81613722565b811461397557600080fd5b50565b6139818161376e565b811461398c57600080fd5b5056fe416e204e465420772f20494420257320686173206265656e206d696e74656420746f2025734142434445464748494a4b4c4d4e4f505152535455565758595a6162636465666768696a6b6c6d6e6f707172737475767778797a303132333435363738392b2fa2646970667358221220480ac2b68a72b5b11240a7e850a6e48bb8b5d3be496581b23eb11ac00992e7a264736f6c634300080000333c73766720786d6c6e733d27687474703a2f2f7777772e77332e6f72672f323030302f73766727207072657365727665417370656374526174696f3d27784d696e594d696e206d656574272076696577426f783d273020302033353020333530273e3c7374796c653e2e62617365207b2066696c6c3a2077686974653b20666f6e742d66616d696c793a2073657269663b20666f6e742d73697a653a20323470783b207d3c2f7374796c653e3c726563742077696474683d273130302527206865696768743d2731303025272066696c6c3d27272f3e3c7465787420783d273530252720793d273530252720636c6173733d27626173652720646f6d696e616e742d626173656c696e653d276d6964646c652720746578742d616e63686f723d276d6964646c65273e",
  "linkReferences": {},
  "deployedLinkReferences": {}
}